:100000000C9448000C9472000C9472000C947200D2
:100010000C9472000C9472000C9472000C94720098
:100020000C9472000C9472000C9472000C94720088
:100030000C9472000C9472000C9472000C94720078
:100040000C9472000C9472000C94CB040C9472000B
:100050000C9460030C9496030C9472000C94720040
:100060000C9472000C9472000C9472000C94720048
:100070000C94F7030C942D040C9472000C947200F1
:100080000C9472000C9472000C947200CA03610408
:1000900011241FBECFEFD0E4DEBFCDBF11E0A0E042
:1000A000B1E0E8E2FFE000E00BBF02C007900D9274
:1000B000A634B107D9F722E0A6E4B1E001C01D9251
:1000C000AF38B207E1F710E0C8E4D0E004C02197F0
:1000D000FE010E945C06C634D107C9F70E948F0456
:1000E0000C9492070C940000CF93DF9381E490E08E
:1000F0000E949E04EC010E94A000D0934701C0938F
:10010000460126E040E855E260E070E088E491E0D6
:10011000DF91CF910C94FB02089585EE91E00E944F
:100120002402892B61F085EE91E00E943E02682F47
:1001300080914601909147010E94F101EECF089510
:10014000CF93DF93EC0107960E94C90584B18F63BA
:1001500084B98FEF81B985B18F6085B985B18F7C06
:1001600085B928986AE070E080E090E00E943A0546
:10017000289A6AE070E080E090E00E943A051882D8
:1001800019821A821B821C821D821E821C861D8679
:1001900026E042E15AE760E070E085EE91E00E94DF
:1001A000FB0260E082E20E94130260E087E20E94AC
:1001B000130261E088E20E94130262E088E20E947A
:1001C000130264E088E20E94130265E088E20E9464
:1001D000130266E088E20E94130260E08BE20E9454
:1001E000130261E780E30E9413026DE084E30E9442
:1001F000130263E388E30E94130261E08CE30E9430
:10020000130263E280E40E9413026DE284E40E9420
:10021000130266E288E40E94130260E08CE40E940C
:1002200013026FE580E50E94130269E984E50E94EC
:1002300013026FE588E50E94130264E98CE50E94D1
:10024000130265E080E60E94130265E084E60E94E6
:10025000130265E088E60E94130267E08CE60E94C4
:10026000130262E080E70E94130262E084E70E94CA
:10027000130262E088E70E94130262E08CE70E94AA
:10028000130261E180E80E94130261E184E80E94A8
:10029000130261E188E80E94130266EA8CE80E947A
:1002A000130260E080E90E94130260E084E90E948A
:1002B000130260E088E90E94130260E08CE90E946A
:1002C000130262E380EB0E94130260EC84EB0E9455
:1002D000130260E088E20E94130262E284EA0E9454
:1002E000130269E680EADF91CF910C9413021F9309
:1002F000CF93DF93D5EFD60F8D2F0E94F505C82F32
:100300008D2F0E94F9058C30910540F4FC01EE0F11
:10031000FF1FEA5FFE4FD081118102C0D0E010E0E4
:1003200060E088E20E94130228E0C29FC00111240D
:10033000612F682B84EA0E9413026D2F80EA0E94CD
:10034000130260EF88E20E941302DF91CF911F91A8
:100350000895EF92FF920F931F93CF93DF931F9215
:10036000CDB7DEB78C017C0187E0E80EF11CC70138
:100370000E94F205882341F160E070E0C7010E940D
:10038000E6059C01992734E0959587953A95E1F724
:100390000997E9F42F7030E0F801868190E0281782
:1003A0003907A9F462E070E0C7010E94E605482F12
:1003B00061E070E0C70149830E94E605682F49812A
:1003C000C8010E94770103C08FEF9FEF02C080E059
:1003D00090E00F90DF91CF911F910F91FF90EF90E0
:1003E0000895CF93DF93EC0107960E94D0058823F0
:1003F00019F0CE010E94A90180E090E0DF91CF9139
:100400000895299882B981E090E00E9476052A98A3
:1004100085E090E00E9476052A9A85E090E00E94AF
:100420007605299A0895CF93DF931F92CDB7DEB753
:100430002C9869830E9401022C9A6981862F0F9063
:10044000DF91CF910C940102FC01918D228D892FB7
:1004500090E0805C9F4F821B91098F7399270895CC
:10046000FC01918D828D981731F0828DE80FF11D7E
:10047000858D90E008958FEF9FEF0895FC01918D99
:10048000828D981761F0828DDF01A80FB11D5D96F6
:100490008C91928D9F5F9F73928F90E008958FEF64
:1004A0009FEF089580EC93E0892B41F080E090E08D
:1004B000892B21F00E94C00381110DC087E594E0D3
:1004C000892B71F08DE890E0892B51F00E94570440
:1004D000811104C008950E940000F0CF0C948D009B
:1004E0000895FC01848DDF01A80FB11DA35ABF4FF1
:1004F0002C91848D90E001968F739927848FA68923
:10050000B7892C93A089B1898C9180648C93938D49
:10051000848D981306C00288F389E02D80818F7D39
:1005200080830895CF93DF93EC01888D8823C9F0F1
:10053000EA89FB89808185FD05C0A889B9898C91EC
:1005400086FD0FC00FB607FCF5CF808185FFF2CF87
:10055000A889B9898C9185FFEDCFCE010E947102E7
:10056000E7CFDF91CF910895EF92FF920F931F9302
:10057000CF93DF93EC0181E0888F9B8D8C8D981356
:1005800005C0E889F989808185FD24C0F62E0B8D90
:1005900010E00F5F1F4F0F731127E02E8C8DE812B4
:1005A0000CC00FB607FCFACFE889F989808185FF76
:1005B000F5CFCE010E947102F1CF8B8DFE01E80FC5
:1005C000F11DE35AFF4FF0820B8FEA89FB8980818E
:1005D000806207C0EE89FF896083E889F98980819C
:1005E0008064808381E090E0DF91CF911F910F9133
:1005F000FF90EF900895CF92DF92EF92FF921F93BA
:10060000CF93DF93EC016A017B01122FE889F9890E
:1006100082E080834115514E61057105B1F060E0C3
:1006200079E08DE390E0A70196010E942606DA01A9
:10063000C9010197A109B109B695A7959795879525
:10064000AC01411580E15807A8F0E889F9891082CA
:1006500060E874E88EE190E0A70196010E9426060A
:10066000BA01A9014150510961097109769567954F
:1006700057954795EC85FD855083EE85FF85408332
:10068000188EEC89FD891083EA89FB89808180615D
:100690008083EA89FB89808188608083EA89FB897D
:1006A000808180688083EA89FB8980818F7D808357
:1006B000DF91CF911F91FF90EF90DF90CF90089541
:1006C0001F920F920FB60F9211240BB60F922F9319
:1006D0008F939F93EF93FF93E0915801F09159010D
:1006E0008081E0915E01F0915F0182FD12C09081F6
:1006F000809161018F5F8F7320916201821751F0A9
:10070000E0916101F0E0E85BFE4F958F809361011D
:1007100001C08081FF91EF919F918F912F910F9058
:100720000BBE0F900FBE0F901F9018951F920F9247
:100730000FB60F9211240BB60F922F933F934F9346
:100740005F936F937F938F939F93AF93BF93EF9339
:10075000FF9388E491E00E947102FF91EF91BF91B5
:10076000AF919F918F917F916F915F914F913F9149
:100770002F910F900BBE0F900FBE0F901F901895EA
:1007800088E491E00E94240221E0892B09F420E012
:10079000822F0895E8E4F1E01382128288EE93E05C
:1007A000A0E0B0E084839583A683B78382E291E0E2
:1007B0009183808385EC90E09587848784EC90E03A
:1007C0009787868780EC90E0918B808B81EC90E01E
:1007D000938B828B82EC90E0958B848B86EC90E0FF
:1007E000978B868B118E128E138E148E08951F9206
:1007F0000F920FB60F9211240BB60F922F938F9377
:100800009F93EF93FF93E091F501F091F6018081C2
:10081000E091FB01F091FC0182FD12C0908180917A
:10082000FE018F5F8F732091FF01821751F0E091DD
:10083000FE01F0E0EB51FE4F958F8093FE0101C069
:100840008081FF91EF919F918F912F910F900BBE1F
:100850000F900FBE0F901F9018951F920F920FB61A
:100860000F9211240BB60F922F933F934F935F93E8
:100870006F937F938F939F93AF93BF93EF93FF9368
:1008800085EE91E00E947102FF91EF91BF91AF91CF
:100890009F918F917F916F915F914F913F912F9198
:1008A0000F900BBE0F900FBE0F901F90189585EE06
:1008B00091E00E94240221E0892B09F420E0822F9C
:1008C0000895E5EEF1E01382128288EE93E0A0E055
:1008D000B0E084839583A683B78382E291E091831D
:1008E00080838DEC90E0958784878CEC90E09787EF
:1008F000868788EC90E0918B808B89EC90E0938BDD
:10090000828B8AEC90E0958B848B8EEC90E0978BB9
:10091000868B118E128E138E148E089508950E9468
:1009200081050E948E040E947400C2E5D2E00E94FC
:100930008C002097E1F30E945202F9CF0C946506D7
:10094000CF92DF92EF92FF920F931F93CF93DF939B
:100950006C017A018B01C0E0D0E0CE15DF0589F093
:10096000D8016D918D01D601ED91FC910190F0813E
:10097000E02DC6010995892B11F47E0102C0219654
:10098000ECCFC701DF91CF911F910F91FF90EF90B6
:10099000DF90CF9008951F920F920FB60F921124FF
:1009A0002F933F938F939F93AF93BF938091830235
:1009B00090918402A0918502B091860230918202CA
:1009C00023E0230F2D3720F40196A11DB11D05C092
:1009D00026E8230F0296A11DB11D20938202809369
:1009E000830290938402A0938502B0938602809143
:1009F000870290918802A0918902B0918A020196A3
:100A0000A11DB11D8093870290938802A093890253
:100A1000B0938A02BF91AF919F918F913F912F9197
:100A20000F900FBE0F901F9018953FB7F8948091CC
:100A3000870290918802A0918902B0918A0226B51E
:100A4000A89B05C02F3F19F00196A11DB11D3FBF06
:100A5000BA2FA92F982F8827820F911DA11DB11D94
:100A6000BC01CD0142E0660F771F881F991F4A9590
:100A7000D1F708958F929F92AF92BF92CF92DF925B
:100A8000EF92FF926B017C010E9415054B015C0106
:100A9000C114D104E104F10401F10E9405060E9491
:100AA0001505DC01CB0188199909AA09BB09883E03
:100AB0009340A105B10560F321E0C21AD108E10815
:100AC000F10888EE880E83E0981EA11CB11CC114A9
:100AD000D104E104F10419F7DBCFFF90EF90DF9030
:100AE000CF90BF90AF909F908F90089582309105E6
:100AF00038F0880F991F880F991F05970197F1F714
:100B00000895789484B5826084BD84B5816084BD85
:100B100085B5826085BD85B5816085BDEEE6F0E076
:100B2000808181608083E1E8F0E0108280818260D2
:100B30008083808181608083E0E8F0E08081816053
:100B40008083E1EBF0E0808184608083E0EBF0E083
:100B5000808181608083E1E9F0E080818260808330
:100B6000808181608083E0E9F0E080818160808322
:100B7000EAE7F0E080818460808380818260808306
:100B80008081816080838081806880831092C10031
:100B90000895FC011082118212821382148208953A
:100BA000FC0194818381DF01A80FB11D6C93911129
:100BB000148290E0019663E070E00E941206838345
:100BC000892B11F481E08483848108956330710559
:100BD00034F4FC01E60FF71F808190E008958FEF59
:100BE0009FEF0895FC01848108956CE00E94060641
:100BF00008956CE00E940606E92FF0E0EE0FFF1F5B
:100C0000E25DFE4F8081918108950895991B79E0FE
:100C100004C0991F961708F0961B881F7A95C9F78C
:100C20008095089597FB072E16F4009407D077FD62
:100C300009D00E94480607FC05D03EF490958195A6
:100C40009F4F0895709561957F4F0895A1E21A2EE8
:100C5000AA1BBB1BFD010DC0AA1FBB1FEE1FFF1F60
:100C6000A217B307E407F50720F0A21BB30BE40BB0
:100C7000F50B661F771F881F991F1A9469F76095F7
:100C80007095809590959B01AC01BD01CF010895B1
:100C9000AA1BBB1B51E107C0AA1FBB1FA617B707A2
:100CA00010F0A61BB70B881F991F5A95A9F78095BE
:100CB0009095BC01CD010895EE0FFF1F0024001C8C
:100CC0000BBE0790F691E02D0994CF93DF9382300D
:100CD000910510F482E090E0E0918D02F0918E0297
:100CE00020E030E0C0E0D0E0309711F14081518148
:100CF00048175907C0F04817590761F4828193815A
:100D0000209719F09B838A832BC090938E02809347
:100D10008D0226C02115310519F04217530718F42A
:100D20009A01BE01DF01EF010280F381E02DDCCFEB
:100D30002115310509F1281B390B2430310590F4B8
:100D400012968D919C9113976115710521F0FB010D
:100D50009383828304C090938E0280938D02FD0161
:100D6000329644C0FD01E20FF31F8193919322500C
:100D700031092D933C933AC020918B0230918C0223
:100D8000232B41F4209102013091030130938C0216
:100D900020938B0220910001309101012115310532
:100DA00041F42DB73EB74091040150910501241B39
:100DB000350BE0918B02F0918C02E217F307A0F45F
:100DC0002E1B3F0B2817390778F0AC014E5F5F4FA1
:100DD0002417350748F04E0F5F1F50938C02409345
:100DE0008B028193919302C0E0E0F0E0CF01DF91AC
:100DF000CF9108950F931F93CF93DF93009709F43A
:100E00008CC0FC0132971382128200918D021091E6
:100E10008E020115110581F420813181820F931F0B
:100E200020918B0230918C022817390779F5F093C5
:100E30008C02E0938B0271C0D80140E050E0AE1705
:100E4000BF0750F412962D913C911397AD012115D7
:100E5000310509F1D901F3CF9D01DA0133832283F2
:100E600060817181860F971F8217930769F4EC01E7
:100E700028813981260F371F2E5F3F4F3183208312
:100E80008A819B8193838283452B29F4F0938E0280
:100E9000E0938D0242C01396FC93EE931297ED01FE
:100EA000499159919E01240F351FE217F30771F400
:100EB00080819181840F951F029611969C938E9349
:100EC0008281938113969C938E931297E0E0F0E0D9
:100ED000D80112968D919C911397009719F0F80103
:100EE0008C01F6CF8D919C9198012E5F3F4F820F20
:100EF000931F20918B0230918C022817390769F4D7
:100F0000309729F410928E0210928D0202C0138243
:100F1000128210938C0200938B02DF91CF911F916C
:080F20000F910895F894FFCF32
:100F280000008F02800069028D02B402DD0209030D
:100F3800370368039C03D3030D044B048C0400009F
:100F48000000B402A00424023E0230029202000013
:100F58000100020003000400050006000700080065
:060F680009000A000B0065
:00000001FF
