:100000000C9448000C9472000C9472000C947200D2
:100010000C9472000C9472000C9472000C94720098
:100020000C9472000C9472000C9472000C94720088
:100030000C9472000C9472000C9472000C94720078
:100040000C9472000C9472000C948C0A0C94720044
:100050000C94E0080C9416090C9472000C94720035
:100060000C9472000C9472000C9472000C94720048
:100070000C9477090C94AD090C9472000C947200E6
:100080000C9472000C9472000C9472004A09E109FD
:1000900011241FBECFEFD0E4DEBFCDBF12E0A0E041
:1000A000B1E0E6E4FBE100E00BBF02C007900D9277
:1000B000AC3CB107D9F724E0ACECB2E001C01D9232
:1000C000A531B207E1F710E0C8E4D0E004C0219701
:1000D000FE010E945C0CC634D107C9F70E940F0ACA
:1000E0000C94A10D0C940000CF93DF9380E591E078
:1000F0000E941E0AEC010E943C06D093CD02C093E0
:10010000CC0226E040E855E260E070E08EEC92E040
:10011000DF91CF910C947B0808958BE693E00E94C9
:10012000A407892B61F08BE693E00E94BE07682F3D
:100130008091CC029091CD020E94D604EECF08951A
:10014000CF93DF9300D0CDB7DEB7FC01168665856F
:1001500082E289831A82CE0101960E948D0780E097
:1001600090E00F900F90DF91CF910895CF93DF93A0
:1001700000D0CDB7DEB74150453030F4E42FF0E089
:10018000EA57FD4F808101C080E098E299831A828E
:1001900090E1699FB0011124682BCE0101960E9465
:1001A0008D0780E090E00F900F90DF91CF91089540
:1001B000462F6FE00C94B600462F60E00C94B6001A
:1001C00025EF260FFC0160E070E03191321307C08B
:1001D000FC01E60FF71F10820E94DC0005C06F5F74
:1001E0007F4F6630710589F780E090E00895CF93E6
:1001F000DF9300D0CDB7DEB78BE289831A8260E04F
:10020000CE0101960E948D0780E090E00F900F9044
:10021000DF91CF910895677050E034E0239F800D07
:10022000911D1124FC01E40FF51F628B80E1689F92
:10023000B001112482A5682B36E0349FC001359FA0
:10024000900D1124820F911D880F991F8A5A9D4F7E
:100250000E948D0780E090E00895FF920F931F9316
:10026000CF93DF938C01D62FF42EC0E02C2F4F2D8F
:100270006D2FC8010E940B01CF5FC630B9F780E037
:1002800090E0DF91CF911F910F91FF9008956F70D3
:1002900050E034E0239F800D911D1124FC01E40FF8
:1002A000F51F62A7928930E1939FC0011124682B4A
:1002B00036E0349FC001359F900D1124820F911DAF
:1002C000880F991F8A5A9D4F0E948D0780E090E009
:1002D0000895FF920F931F93CF93DF938C01D62F36
:1002E000F42EC0E02C2F4F2D6D2FC8010E94470126
:1002F000CF5FC630B9F780E090E0DF91CF911F91DA
:100300000F91FF900895BF92CF92DF92EF92FF92EC
:100310000F931F93CF93DF938C01E42EF12C8CE08D
:10032000489FE0011124C12CD12C6F77B62EF60125
:10033000EE0FFF1FEE0DFF1DEE5BFF4FE00FF11FF5
:10034000B082C6018C0F9D1F6B2D8A5D9D4F0E9450
:100350008D0782E0C80ED11C8CE0C816D10439F795
:1003600080E090E0DF91CF911F910F91FF90EF908F
:10037000DF90CF90BF900895637050E034E0239FEA
:10038000800D911D1124840F951FFC01E65AFF4F2B
:10039000608330E4639FB001112478968081682BDC
:1003A00036E0349FC001359F900D1124820F911DBE
:1003B000880F991F8A509E4F0E948D0780E090E021
:1003C0000895FF920F931F93CF93DF938C01D62F45
:1003D000F42EC0E02C2F4F2D6D2FC8010E94BC01C0
:1003E000CF5FC630B9F780E090E0DF91CF911F91E9
:1003F0000F91FF9008956F7150E034E0239F800DBE
:10040000911D1124840F951FFC01EE58FF4F60834E
:100410007897908130E4939FC0011124682B36E0D7
:10042000349FC001359F900D1124820F911D880FBC
:10043000991F8A509E4F0E948D0780E090E008959A
:10044000FF920F931F93CF93DF938C01D62FF42E3F
:10045000C0E02C2F4F2D6D2FC8010E94FB01CF5FF4
:10046000C630B9F780E090E0DF91CF911F910F91F6
:10047000FF900895EF92FF920F931F93CF93DF9316
:100480008C01060F111D8CE0689F70011124C0E0E3
:10049000D0E0F801E657FF4F10827896CE018E0D1E
:1004A0009F1D60818A539E4F0E948D070C5F1F4FD6
:1004B0002296CC30D10569F780E090E0DF91CF91B2
:1004C0001F910F91FF90EF9008956F7150E0A22F50
:1004D000B0E034E0239F800D911D1124840F951FFF
:1004E000FC01EE55FF4F608378978081811102C037
:1004F00090E001C090E8692B26E0249FC001259F71
:10050000900D11248A0F9B1F880F991F8A539E4FAD
:100510000E948D0780E090E00895FF920F931F9353
:10052000CF93DF938C01D62FF42EC0E02C2F4F2DCC
:100530006D2FC8010E946502CF5FC630B9F780E019
:1005400090E0DF91CF911F910F91FF900895BF929E
:10055000CF92DF92EF92FF920F931F93CF93DF938F
:100560008C01E42EF12C8CE0489FE0011124C12C79
:10057000D12C6F71B62EF601EE0FFF1FEE0DFF1D91
:10058000E654FF4FE00FF11FB082C6018C0F9D1F94
:100590006B2D8A569E4F0E948D0782E0C80ED11C9B
:1005A0008CE0C816D10439F780E090E0DF91CF915C
:1005B0001F910F91FF90EF90DF90CF90BF90089523
:1005C0006F7050E034E0239F800D911D1124840F43
:1005D000951FFC01EE52FF4F608330E1639FB00135
:1005E000112478968081682B36E0349FC001359FB6
:1005F000900D1124820F911D880F991F8A599E4FCB
:100600000E948D0780E090E00895FF920F931F9362
:10061000CF93DF938C01D62FF42EC0E02C2F4F2DDB
:100620006D2FC8010E94E002CF5FC630B9F780E0AD
:1006300090E0DF91CF911F910F91FF9008956F701F
:1006400050E034E0239F800D911D1124840F951FED
:10065000FC01E651FF4F60837897908130E1939FD2
:10066000C0011124682B36E0349FC001359F900DE6
:100670001124820F911D880F991F8A599E4F0E9445
:100680008D0780E090E00895FF920F931F93CF9322
:10069000DF938C01D62FF42EC0E02C2F4F2D6D2F21
:1006A000C8010E941F03CF5FC630B9F780E090E019
:1006B000DF91CF911F910F91FF900895BF92CF923C
:1006C000DF92EF92FF920F931F93CF93DF938C01F2
:1006D000E42EF12C8CE0489FE0011124C12CD12C98
:1006E0006F70B62EF601EE0FFF1FEE0DFF1DEE5FD1
:1006F000FE4FE00FF11FB082C6018C0F9D1F6B2DC6
:100700008A5C9E4F0E948D0782E0C80ED11C8CE04F
:10071000C816D10439F780E090E0DF91CF911F91A6
:100720000F91FF90EF90DF90CF90BF9008950F93BF
:100730001F93CF93DF931F92CDB7DEB730E0D9017F
:10074000A057BF4FAA0FBB1FA80FB91F4C931196FC
:100750005C93FC01E20FF31FE65EFE4F608378E0DE
:10076000679FC0011124652F682B8901000F111F9D
:10077000C801825E9E4F49830E948D074981642F84
:10078000C801865D9E4F0E948D0780E090E00F902B
:10079000DF91CF911F910F9108956F927F929F9259
:1007A000AF92BF92CF92DF92EF92FF920F931F937F
:1007B000CF93DF931F92CDB7DEB7411110C00F90DA
:1007C000DF91CF911F910F91FF90EF90DF90CF902D
:1007D000BF90AF909F907F906F900C94E000962E0A
:1007E0003C01642F70E080E090E01F921F921F9206
:1007F0002FE72F9350E6A52EB12CC12CD12C1FE74B
:10080000E12EF12C00E010E020E030E0A9010E9490
:100810004B0AE62EF5EFFF2EF90C8F2D0E94E30B0D
:10082000682F8F2D69830E94E70B0F900F900F9018
:100830000F9069818C30910540F4FC01EE0FFF1F91
:10084000E557FD4F4081518102C040E050E0F30187
:10085000C12CD12C0FEF1FEF81918F1109C02C2DCE
:10086000C3010E9497036C2DC3010E94D80033C0BE
:100870000F3F9FEF190719F4811101C086018FEF17
:10088000C81AD80A96E0C916D10431F70F3F8FEF86
:10089000180721F1202FC3010E9497036E2D609548
:1008A0006F77C8019927FC01EE0FFF1FEE0FFF1FA6
:1008B000E60DF71DEB5BFF4F6083880F991F865B8A
:1008C0009D4F0E948D07602FC3010E94D800F30145
:1008D000E00FF11FF08280E090E000C00F90DF9108
:1008E000CF911F910F91FF90EF90DF90CF90BF902D
:1008F000AF909F907F906F900895EF92FF920F932B
:100900001F93CF93DF931F92CDB7DEB77C018C018D
:10091000095F1F4FC8010E94E00B8823D1F160E0FE
:1009200070E0C8010E94D40B9C01807F9927803819
:100930009105E9F08039910579F52F7030E0F701E4
:10094000868190E02817390739F562E070E0C80128
:100950000E94D40B482F61E070E0C80149830E94D7
:10096000D40B682F4981C7010E94CD0315C02F7099
:1009700030E0F701868190E02817390769F461E0DB
:1009800070E0C8010E94D40B682FC7010E94E000EC
:1009900003C08FEF9FEF02C080E090E00F90DF91E7
:1009A000CF911F910F91FF90EF900895CF93DF9318
:1009B000EC0107960E94B20B882319F0CE010E9429
:1009C0007D0480E090E0DF91CF910895677050E062
:1009D000840F951FFC01E45DFE4F608328E0629F59
:1009E000B001112436968081682BCA01880F991FA7
:1009F0008E5E9E4F0E948D0780E090E008950F93D9
:100A00001F93CF93DF938C01D62FC0E04C2F6D2F17
:100A1000C8010E94E604CF5FC630C1F780E090E0D5
:100A2000DF91CF911F910F910895677050E0840F6F
:100A3000951FFC01EE5CFE4F60833697908128E0A5
:100A4000929FC0011124682BCA01880F991F8E5EE6
:100A50009E4F0E948D0780E090E008950F931F93B2
:100A6000CF93DF938C01D62FC0E04C2F6D2FC801A0
:100A70000E941505CF5FC630C1F780E090E0DF919E
:100A8000CF911F910F910895262F30E0820F931F71
:100A9000FC01E85CFE4F41E0408336964081411105
:100AA00002C060E001C060E4FC01E65BFE4F4081F3
:100AB00040683697908158E0959FC0011124842B9F
:100AC000682BC901880F991F8A5F9E4F0E948D076E
:100AD00080E090E00895262F30E0820F931FFC0104
:100AE000E25CFE4F41E0408336974081411102C0F5
:100AF00060E001C060E8FC01E65BFE4F40814064BD
:100B00003697908158E0959FC0011124842B682B63
:100B1000C901880F991F8A5F9E4F0E948D0780E050
:100B200090E008950F931F93CF938C01C0E06C2F3A
:100B3000C8010E944405CF5FC630C9F780E090E04D
:100B4000CF911F910F9108950F931F93CF938C0115
:100B5000C0E06C2FC8010E946B05CF5FC630C9F79B
:100B600080E090E0CF911F910F910895677050E061
:100B7000FC01E40FF51FDF01AC5BBE4F6C931C97CB
:100B80008C91811102C090E001C090E8DF01A25C6D
:100B9000BE4F8C91811180E478E0679F9001112411
:100BA000E65BFE4F6081262B982B622F692BCA01D2
:100BB000880F991F8A5F9E4F0E948D0780E090E00A
:100BC0000895637050E09C01240F351FF901E65B26
:100BD000FE4F608372978081811102C090E001C056
:100BE00090E8F901E25CFE4F8081811102C070E063
:100BF00001C070E4F901EC5BFE4F8081E8E08E9F5C
:100C000090011124262B972B622F692BCA01880F84
:100C1000991F8A5F9E4F0E948D0780E090E00895A3
:100C20000F931F93CF93DF938C01D62FC0E04C2FEF
:100C30006D2FC8010E94B605CF5FC630C1F780E0B6
:100C400090E0DF91CF911F910F9108950F931F9323
:100C5000CF93DF938C01D62FC0E04C2F6D2FC801AE
:100C60000E94E105CF5FC630C1F780E090E0DF91E0
:100C7000CF911F910F910895CF93DF93EC010796C9
:100C80000E948A0B84B18F6384B98FEF81B985B1DB
:100C90008F6085B985B18F7C85B928986AE070E04E
:100CA00080E090E00E94FB0A289A6AE070E080E011
:100CB00090E00E94FB0A188219821A821B821C8211
:100CC0001D821E821D861E8626E042E15AE760E0F4
:100CD00070E08BE693E00E947B08CE010E94A000AA
:100CE00060E0CE010E94DC0061E0CE010E94DC00E9
:100CF00062E0CE010E94DC0063E0CE010E94DC00D5
:100D000064E0CE010E94DC0065E0CE010E94DC00C0
:100D1000CE010E94F70040E067E0CE010E942D0165
:100D200040E061E0CE010E94690141E060E0CE0157
:100D30000E942D0141E06DE0CE010E94690142E078
:100D400063E0CE010E942D0142E063E0CE010E94EB
:100D5000690143E060E0CE010E942D0143E061E0C3
:100D6000CE010E94690140E063E2CE010E9483014E
:100D700041E06DE2CE010E94830142E066E2CE01D5
:100D80000E94830143E060E0CE010E94830140E0C5
:100D90006FE1CE010E94200240E061E0CE010E949E
:100DA000E10141E069E1CE010E94200241E062E000
:100DB000CE010E94E10142E06FE1CE010E942002DB
:100DC00042E061E0CE010E94E10143E064E1CE0136
:100DD0000E94200243E062E0CE010E94E10160E057
:100DE000CE010E943A0240E065E0CE010E948D02F1
:100DF00061E0CE010E943A0241E065E0CE010E942E
:100E00008D0262E0CE010E943A0242E065E0CE012E
:100E10000E948D0263E0CE010E943A0243E067E047
:100E2000CE010E948D0240E062E0CE010E94A70246
:100E300041E062E0CE010E94A70242E062E0CE0102
:100E40000E94A70243E062E0CE010E94A70240E0B8
:100E500061E0CE010E94050340E061E0CE010E9406
:100E6000440341E061E0CE010E94050341E061E0FE
:100E7000CE010E94440342E061E0CE010E940503DE
:100E800042E061E0CE010E94440343E06AE0CE010B
:100E90000E94050343E066E0CE010E94440340E067
:100EA00060E0CE010E945E0341E060E0CE010E945E
:100EB0005E0342E060E0CE010E945E0343E060E03A
:100EC000CE010E945E0366E0CE010E94FF0462E054
:100ED000CE010E942E05CE010E949205CE010E94F5
:100EE000A40560E0CE010E94260660E0CE01DF91FD
:100EF000CF910C941006299882B981E090E00E946D
:100F0000370B2A9885E090E00E94370B2A9A85E0FB
:100F100090E00E94370B299A0895CF93FC01C62FC9
:100F200080819181992329F0913061F42C982D9A38
:100F300002C02C982D980E947B072C9A8C2FCF9161
:100F40000C947B07CF910895FC01918D228D892F00
:100F500090E0805C9F4F821B91098F7399270895C1
:100F6000FC01918D828D981731F0828DE80FF11D73
:100F7000858D90E008958FEF9FEF0895FC01918D8E
:100F8000828D981761F0828DDF01A80FB11D5D96EB
:100F90008C91928D9F5F9F73928F90E008958FEF59
:100FA0009FEF089580E499E0892B41F080E090E084
:100FB000892B21F00E94400981110DC087ED99E035
:100FC000892B71F08DE890E0892B51F00E94D709B0
:100FD000811104C008950E940000F0CF0C948D0090
:100FE0000895FC01848DDF01A80FB11DA35ABF4FE6
:100FF0002C91848D90E001968F739927848FA68918
:10100000B7892C93A089B1898C9180648C93938D3E
:10101000848D981306C00288F389E02D80818F7D2E
:1010200080830895CF93DF93EC01888D8823C9F0E6
:10103000EA89FB89808185FD05C0A889B9898C91E1
:1010400086FD0FC00FB607FCF5CF808185FFF2CF7C
:10105000A889B9898C9185FFEDCFCE010E94F10757
:10106000E7CFDF91CF910895EF92FF920F931F93F7
:10107000CF93DF93EC0181E0888F9B8D8C8D98134B
:1010800005C0E889F989808185FD24C0F62E0B8D85
:1010900010E00F5F1F4F0F731127E02E8C8DE812A9
:1010A0000CC00FB607FCFACFE889F989808185FF6B
:1010B000F5CFCE010E94F107F1CF8B8DFE01E80F35
:1010C000F11DE35AFF4FF0820B8FEA89FB89808183
:1010D000806207C0EE89FF896083E889F989808191
:1010E0008064808381E090E0DF91CF911F910F9128
:1010F000FF90EF900895CF92DF92EF92FF921F93AF
:10110000CF93DF93EC016A017B01122FE889F98903
:1011100082E080834115514E61057105B1F060E0B8
:1011200079E08DE390E0A70196010E94100CDA01AE
:10113000C9010197A109B109B695A795979587951A
:10114000AC01411580E15807A8F0E889F9891082BF
:1011500060E874E88EE190E0A70196010E94100C0F
:10116000BA01A90141505109610971097695679544
:1011700057954795EC85FD855083EE85FF85408327
:10118000188EEC89FD891083EA89FB898081806152
:101190008083EA89FB89808188608083EA89FB8972
:1011A000808180688083EA89FB8980818F7D80834C
:1011B000DF91CF911F91FF90EF90DF90CF90089536
:1011C0001F920F920FB60F9211240BB60F922F930E
:1011D0008F939F93EF93FF93E091DE02F091DF02F4
:1011E0008081E091E402F091E50282FD12C09081DD
:1011F0008091E7028F5F8F732091E802821751F090
:10120000E091E702F0E0E253FD4F958F8093E70213
:1012100001C08081FF91EF919F918F912F910F904D
:101220000BBE0F900FBE0F901F9018951F920F923C
:101230000FB60F9211240BB60F922F933F934F933B
:101240005F936F937F938F939F93AF93BF93EF932E
:10125000FF938EEC92E00E94F107FF91EF91BF9116
:10126000AF919F918F917F916F915F914F913F913E
:101270002F910F900BBE0F900FBE0F901F901895DF
:101280008EEC92E00E94A40721E0892B09F420E073
:10129000822F0895EEECF2E01382128288EE93E042
:1012A000A0E0B0E084839583A683B78387EA92E0C9
:1012B0009183808385EC90E09587848784EC90E02F
:1012C0009787868780EC90E0918B808B81EC90E013
:1012D000938B828B82EC90E0958B848B86EC90E0F4
:1012E000978B868B118E128E138E148E08951F92FB
:1012F0000F920FB60F9211240BB60F922F938F936C
:101300009F93EF93FF93E0917B03F0917C038081A7
:10131000E0918103F091820382FD12C0908180915F
:1013200084038F5F8F7320918503821751F0E091C2
:101330008403F0E0E559FC4F958F8093840301C04E
:101340008081FF91EF919F918F912F910F900BBE14
:101350000F900FBE0F901F9018951F920F920FB60F
:101360000F9211240BB60F922F933F934F935F93DD
:101370006F937F938F939F93AF93BF93EF93FF935D
:101380008BE693E00E94F107FF91EF91BF91AF913F
:101390009F918F917F916F915F914F913F912F918D
:1013A0000F900BBE0F900FBE0F901F9018958BE6FD
:1013B00093E00E94A40721E0892B09F420E0822F0A
:1013C0000895EBE6F3E01382128288EE93E0A0E04A
:1013D000B0E084839583A683B78387EA92E0918304
:1013E00080838DEC90E0958784878CEC90E09787E4
:1013F000868788EC90E0918B808B89EC90E0938BD2
:10140000828B8AEC90E0958B848B8EEC90E0978BAE
:10141000868B118E128E138E148E089508950E945D
:10142000420B0E940E0A0E947400C2EDD7E00E9497
:101430008C002097E1F30E94D207F9CF0C94740C32
:10144000CF92DF92EF92FF920F931F93CF93DF9390
:101450006C017A018B01C0E0D0E0CE15DF0589F088
:10146000D8016D918D01D601ED91FC910190F08133
:10147000E02DC6010995892B11F47E0102C0219649
:10148000ECCFC701DF91CF911F910F91FF90EF90AB
:10149000DF90CF9008954F925F926F927F92AF92BC
:1014A000BF92CF92DF92EF92FF920F931F93CF9351
:1014B000DF93CDB7DEB729013A019B01AC012419B6
:1014C00035094609570989899A89AB89BC89BC01C4
:1014D000CD016A197B098C099D090E94F40BA801B2
:1014E000970124193509460957090E94320CCA018F
:1014F000B9016A0D7B1D8C1D9D1DDF91CF911F9140
:101500000F91FF90EF90DF90CF90BF90AF907F90C2
:101510006F905F904F9008951F920F920FB60F92A9
:1015200011242F933F938F939F93AF93BF938091F9
:10153000090490910A04A0910B04B0910C0430911D
:10154000080423E0230F2D3720F40196A11DB11DBF
:1015500005C026E8230F0296A11DB11D20930804A3
:101560008093090490930A04A0930B04B0930C0495
:1015700080910D0490910E04A0910F04B09110047D
:101580000196A11DB11D80930D0490930E04A093AC
:101590000F04B0931004BF91AF919F918F913F9131
:1015A0002F910F900FBE0F901F9018953FB7F89492
:1015B00080910D0490910E04A0910F04B09110043D
:1015C00026B5A89B05C02F3F19F00196A11DB11D9E
:1015D0003FBFBA2FA92F982F8827820F911DA11DD9
:1015E000B11DBC01CD0142E0660F771F881F991F16
:1015F0004A95D1F708958F929F92AF92BF92CF9262
:10160000DF92EF92FF926B017C010E94D60A4B01A0
:101610005C01C114D104E104F10401F10E94F30B57
:101620000E94D60ADC01CB0188199909AA09BB09D5
:10163000883E9340A105B10560F321E0C21AD108AC
:10164000E108F10888EE880E83E0981EA11CB11C09
:10165000C114D104E104F10419F7DBCFFF90EF903E
:10166000DF90CF90BF90AF909F908F900895823081
:10167000910538F0880F991F880F991F05970197DA
:10168000F1F70895789484B5826084BD84B5816053
:1016900084BD85B5826085BD85B5816085BDEEE67A
:1016A000F0E0808181608083E1E8F0E01082808159
:1016B00082608083808181608083E0E8F0E08081C7
:1016C00081608083E1EBF0E0808184608083E0EBE7
:1016D000F0E0808181608083E1E9F0E080818260D8
:1016E0008083808181608083E0E9F0E08081816097
:1016F0008083EAE7F0E0808184608083808182607B
:101700008083808181608083808180688083109263
:10171000C1000895FC01108211821282138214828A
:101720000895862F807F803BB9F038F48039A1F08E
:10173000803A91F0803839F40FC0803D51F0803EFE
:1017400059F0803C31F0803F51F4623F29F0633F13
:1017500031F482E090E0089583E090E0089581E024
:1017600090E008951F93CF93DF93EC01162F8C81A7
:10177000882341F0CE010E94910B8D831C821B8235
:10178000188305C08B81FE01E80FF11D60838B81FA
:101790008F5F8B839D81891302C081E08C838C8154
:1017A000DF91CF911F9108956330710534F4FC01EE
:1017B000E60FF71F808190E008958FEF9FEF089567
:1017C000FC01848108956CE00E94040C08956CE093
:1017D0000E94040CE92FF0E0EE0FFF1FED54FD4FC7
:1017E0008081918108950895DB018F939F930E94DA
:1017F000510CBF91AF91A29F800D911DA39F900DA1
:10180000B29F900D11240895991B79E004C0991F8F
:10181000961708F0961B881F7A95C9F7809508954A
:10182000A1E21A2EAA1BBB1BFD010DC0AA1FBB1FE4
:10183000EE1FFF1FA217B307E407F50720F0A21B56
:10184000B30BE40BF50B661F771F881F991F1A94C3
:1018500069F760957095809590959B01AC01BD01ED
:10186000CF010895052E97FB1EF400940E94490CA9
:1018700057FD07D00E94100C07FC03D04EF40C94C7
:10188000490C50954095309521953F4F4F4F5F4FF4
:10189000089590958095709561957F4F8F4F9F4FDC
:1018A00008950E94650CA59F900DB49F900DA49F74
:1018B000800D911D11240895EE0FFF1F0024001CC0
:1018C0000BBE0790F691E02D0994A29FB001B39F43
:1018D000C001A39F700D811D1124911DB29F700D39
:1018E000811D1124911D0895CF93DF9382309105BE
:1018F00010F482E090E0E0911304F091140420E0F1
:1019000030E0C0E0D0E0309711F1408151814817BC
:101910005907C0F04817590761F4828193812097D5
:1019200019F09B838A832BC0909314048093130433
:1019300026C02115310519F04217530718F49A01F2
:10194000BE01DF01EF010280F381E02DDCCF211524
:10195000310509F1281B390B2430310590F412961A
:101960008D919C9113976115710521F0FB01938373
:10197000828304C09093140480931304FD01329673
:1019800044C0FD01E20FF31F81939193225031096E
:101990002D933C933AC02091110430911204232BD3
:1019A00041F42091020130910301309312042093FD
:1019B000110420910001309101012115310541F4FC
:1019C0002DB73EB74091040150910501241B350B02
:1019D000E0911104F0911204E217F307A0F42E1B1A
:1019E0003F0B2817390778F0AC014E5F5F4F241783
:1019F000350748F04E0F5F1F5093120440931104B7
:101A00008193919302C0E0E0F0E0CF01DF91CF91AC
:101A100008950F931F93CF93DF93009709F48CC021
:101A2000FC01329713821282009113041091140466
:101A30000115110581F420813181820F931F2091BE
:101A40001104309112042817390779F5F093120424
:101A5000E093110471C0D80140E050E0AE17BF0719
:101A600050F412962D913C911397AD01211531053B
:101A700009F1D901F3CF9D01DA013383228360811B
:101A80007181860F971F8217930769F4EC012881F3
:101A90003981260F371F2E5F3F4F318320838A8184
:101AA0009B8193838283452B29F4F0931404E09364
:101AB000130442C01396FC93EE931297ED014991E3
:101AC00059919E01240F351FE217F30771F48081AD
:101AD0009181840F951F029611969C938E9382811B
:101AE000938113969C938E931297E0E0F0E0D801D7
:101AF00012968D919C911397009719F0F8018C0123
:101B0000F6CF8D919C9198012E5F3F4F820F931FCE
:101B100020911104309112042817390769F4309785
:101B200029F4109214041092130402C0138212823A
:101B30001093120400931104DF91CF911F910F9124
:061B40000895F894FFCFA8
:101B4600000015048000B000B100B200B001B10180
:101B5600B201B000B100B200B001B101B201A400FF
:101B6600A500A600A401A501A601A000A100A2004F
:101B7600A001A101A20190009100920090019101A3
:101B860092019400950096009401950196019800A3
:101B960099009A00980199019A019C009D009E0067
:101BA6009C019D019E0180008100820080018101CF
:101BB60082018400850086008401850186018800F3
:101BC60089008A00880189018A018C008D008E00B7
:101BD6008C018D018E01700071007200700171011F
:101BE6007201740075007600740175017601780043
:101BF60079007A00780179017A017C007D007E0007
:101C06007C017D017E01600061006200600161016E
:101C16006201640065006600640165016601680092
:101C260069006A00680169016A016C006D006E0056
:101C36006C016D016E0150005100520050015101BE
:101C460052015400550056005401550156015800E2
:101C560059005A00580159015A015C005D005E00A6
:101C66005C015D015E01400041004200400141010E
:101C76004201440045004600440145014601480032
:101C860049004A00480149014A014C004D004E00F6
:101C96004C014D014E01300031003200300131015E
:101CA6003201340035003600340135013601380082
:101CB60039003A00380139013A013C003D003E0046
:101CC6003C013D013E01010204050669028D02B494
:101CD60002DD020903370368039C03D3030D044B9B
:101CE600048C04000000003408200AA407BE07B0D4
:101CF60007120800000100020003000400050006A8
:0C1D0600000700080009000A000B0000A4
:00000001FF
